BL51 BANKED LINKER/LOCATER V6.22                                                        05/27/2018  13:31:52  PAGE 1


BL51 BANKED LINKER/LOCATER V6.22, INVOKED BY:
D:\KEIL\C51\BIN\BL51.EXE STARTUP.obj, 1.obj TO dianji RAMSIZE (256)


MEMORY MODEL: SMALL


INPUT MODULES INCLUDED:
  STARTUP.obj (?C_STARTUP)
  1.obj (1)


LINK MAP OF MODULE:  dianji (?C_STARTUP)


            TYPE    BASE      LENGTH    RELOCATION   SEGMENT NAME
            -----------------------------------------------------

            * * * * * * *   D A T A   M E M O R Y   * * * * * * *
            REG     0000H     0008H     ABSOLUTE     "REG BANK 0"
            IDATA   0008H     0001H     UNIT         ?STACK

            * * * * * * *   C O D E   M E M O R Y   * * * * * * *
            CODE    0000H     0003H     ABSOLUTE     
            CODE    0003H     0034H     UNIT         ?PR?MAIN?1
            CODE    0037H     000DH     UNIT         ?PR?DELAY5US?1
            CODE    0044H     000CH     UNIT         ?C_C51STARTUP



OVERLAY MAP OF MODULE:   dianji (?C_STARTUP)


SEGMENT
  +--> CALLED SEGMENT
---------------------
?C_C51STARTUP
  +--> ?PR?MAIN?1

?PR?MAIN?1
  +--> ?PR?DELAY5US?1



SYMBOL TABLE OF MODULE:  dianji (?C_STARTUP)

  VALUE           TYPE          NAME
  ----------------------------------

  -------         MODULE        ?C_STARTUP
  C:0044H         SEGMENT       ?C_C51STARTUP
  I:0008H         SEGMENT       ?STACK
  C:0000H         PUBLIC        ?C_STARTUP
  D:00E0H         SYMBOL        ACC
  D:00F0H         SYMBOL        B
  D:0083H         SYMBOL        DPH
  D:0082H         SYMBOL        DPL
  N:0000H         SYMBOL        IBPSTACK
BL51 BANKED LINKER/LOCATER V6.22                                                      05/27/2018  13:31:52  PAGE 2


  N:0100H         SYMBOL        IBPSTACKTOP
  N:0080H         SYMBOL        IDATALEN
  C:0047H         SYMBOL        IDATALOOP
  N:0000H         SYMBOL        PBPSTACK
  N:0100H         SYMBOL        PBPSTACKTOP
  N:0000H         SYMBOL        PDATALEN
  N:0000H         SYMBOL        PDATASTART
  N:0000H         SYMBOL        PPAGE
  N:0000H         SYMBOL        PPAGEENABLE
  D:00A0H         SYMBOL        PPAGE_SFR
  D:0081H         SYMBOL        SP
  C:0044H         SYMBOL        STARTUP1
  N:0000H         SYMBOL        XBPSTACK
  N:0000H         SYMBOL        XBPSTACKTOP
  N:0000H         SYMBOL        XDATALEN
  N:0000H         SYMBOL        XDATASTART
  C:0000H         LINE#         126
  C:0044H         LINE#         133
  C:0046H         LINE#         134
  C:0047H         LINE#         135
  C:0048H         LINE#         136
  C:004AH         LINE#         185
  C:004DH         LINE#         196
  -------         ENDMOD        ?C_STARTUP

  -------         MODULE        1
  C:0000H         SYMBOL        _ICE_DUMMY_
  D:0090H         PUBLIC        P1
  D:00B0H         PUBLIC        P3
  D:00A8H         PUBLIC        IE
  C:0037H         PUBLIC        Delay5us
  D:00B8H         PUBLIC        IP
  B:00B0H.4       PUBLIC        KEY1
  B:00B0H.5       PUBLIC        KEY2
  B:00B0H.6       PUBLIC        KEY3
  C:0003H         PUBLIC        main
  D:0098H         PUBLIC        SCON
  D:0088H         PUBLIC        TCON
  B:0090H.1       PUBLIC        IN1
  B:0090H.0       PUBLIC        IN2
  B:0090H.2       PUBLIC        ENA
  D:00C8H         PUBLIC        T2CON
  D:00D0H         PUBLIC        PSW
  -------         PROC          DELAY5US
  C:0037H         LINE#         12
  C:0037H         LINE#         13
  C:0037H         LINE#         14
  C:003BH         LINE#         15
  C:003FH         LINE#         16
  C:0043H         LINE#         17
  -------         ENDPROC       DELAY5US
  -------         PROC          MAIN
  C:0003H         LINE#         19
  C:0003H         LINE#         20
  C:0003H         LINE#         21
  C:0003H         LINE#         22
  C:0003H         LINE#         23
BL51 BANKED LINKER/LOCATER V6.22                                                      05/27/2018  13:31:52  PAGE 3


  C:0006H         LINE#         24
  C:0006H         LINE#         25
  C:0009H         LINE#         26
  C:000CH         LINE#         27
  C:000CH         LINE#         28
  C:000EH         LINE#         29
  C:0010H         LINE#         30
  C:0012H         LINE#         31
  C:0015H         LINE#         32
  C:0015H         LINE#         34
  C:0015H         LINE#         36
  C:0018H         LINE#         37
  C:0018H         LINE#         38
  C:001BH         LINE#         39
  C:001EH         LINE#         40
  C:001EH         LINE#         41
  C:0020H         LINE#         42
  C:0022H         LINE#         43
  C:0024H         LINE#         45
  C:0027H         LINE#         46
  C:0027H         LINE#         48
  C:0027H         LINE#         50
  C:002AH         LINE#         51
  C:002AH         LINE#         52
  C:002DH         LINE#         53
  C:0030H         LINE#         54
  C:0030H         LINE#         55
  C:0032H         LINE#         57
  -------         ENDPROC       MAIN
  -------         ENDMOD        1

Program Size: data=9.0 xdata=0 code=80
LINK/LOCATE RUN COMPLETE.  0 WARNING(S),  0 ERROR(S)
